:100000000C9458030C9475030C9475030C947503AD
:100010000C9475030C9475030C9475030C94750380
:100020000C9475030C9475030C94E3120C94B811A2
:100030000C942B190C9475030C9475030C94750394
:100040000C9475030C9475030C9475030C94750350
:100050000C9475030C948D180C9475030C94750313
:100060000C9475030C9475030C9475030C94750330
:100070000C9475030C9475030C9475030C94750320
:100080000C9475030C9475030C9475030C94750310
:100090000C9475030C9475030C9475030C94750300
:1000A0000C9475030C9475030C94750328072A07A8
:1000B00035072C072E073007320734073707390773
:1000C0003B0746073D073F074107430745074807EA
:1000D000EA07EA072808280864088408660ABF0AAD
:1000E000C608BF0AC309C309D009D009D009D0097D
:1000F000D009D009D009D009D009D009D009D00938
:10010000D009D009D009D009E109090A0E0A150A57
:100110002D0A610B640B670B6A0B6D0B700B730B75
:10012000541070109E10DA102111241127112A1179
:100130002D1130113311361139113C114111441177
:1001400047114C11511154115711631B681B721B3D
:10015000661B6B1B701B6E1B0C263326D3273326A6
:10016000D3277B269E26D3279C27AF276628662881
:10017000792879286F2879287928792866286628A7
:100180007428792879287428350031002968E1001D
:10019000015100001E003400040033613400E2000D
:1001A0002000360012001400E1042A00220037006B
:1001B00008000D0050002C002400130018000E0051
:1001C0004F00010026001C000C001B0000006564AD
:1001D000010002530000000F000001000100025363
:1001E00000000007000001002500090007000500CD
:1001F0000000296123000A000B00100052000100DA
:100200002100060017001A00510028001F001500E9
:10021000110019002F002B0027000F0016431D713D
:100220003000E6002E0038002D78E5000151000076
:100230003502310201000100010000001E023402FB
:1002400001003302010001001F023602010001001B
:10025000010001002002370201000100010001003D
:100260002102010001000100010001002202010041
:100270000100010000000100230201000000010054
:100280000000010024020100000001000000010044
:10029000250201000100010000000100260201000A
:1002A000010001000100010027020100010001001E
:1002B000010001002F020100010001000100010006
:1002C0003002010001000100010001002E0238028D
:1002D0002D020100010000002900010001000100C1
:1002E000010000003A001E02200222020100F95C17
:1002F0003B001F02210223020100C95C3C002F02C7
:1003000026022F000100CA5C3D00300227023000A7
:100310000100F85C3E003102350035020000C35C8C
:1003200001000100000001000000F75C0100010075
:10033000000001000000C25C3F0052005100240296
:100340000000F45C4000240021001E0001000100B8
:100350004100250022001F003700C55C4200260036
:10036000230020002700C65C430025022E02310036
:100370002E000100440045000100010001000000C2
:100380000100010001000100010000000100010066
:10039000010001000100010001000100F200010064
:1003A000010001000100F000F1000100F400010073
:1003B00001000100F3000100F5000100010001004F
:1003C0000100010000000100010001000000010027
:1003D0000000010001000100000001000000010018
:1003E0000100010001000100000001000100010006
:1003F00001000100A9000100010001000100AC00A2
:10040000AA00B600010001000100AB00A800010035
:1004100001000100010001000100010001000100D4
:10042000AE0001000100000000000000000000001C
:1004300000000101010101010101010202020202A9
:100440000202020303030303030304040404040578
:100450000505050506060606060707070708080836
:10046000080909090A0A0A0B0B0B0C0C0C0D0D0DDF
:100470000E0E0E0F0F101010111112121313141470
:10048000151516161717181819191A1A1B1C1C1DE2
:100490001D1E1F1F20212122232324252526272836
:1004A00028292A2B2C2C2D2E2F3031313233343564
:1004B000363738393A3B3C3D3E3F40414243444564
:1004C000464748494B4C4D4E4F5052535455575840
:1004D000595A5C5D5E606163646567686A6B6C6EE7
:1004E0006F7172747677797A7C7D7F81828486875A
:1004F000898B8D8E9092949597999B9D9FA1A2A494
:10050000A6A8AAACAEB0B2B4B6B9BBBDBFC1C3C594
:10051000C8CACCCED0D3D5D7DADCDEE1E3E6E8EA50
:10052000EDEFF2F4F7F9FCFF05010902A1018502E4
:100530000901A100050919012905150025019505E5
:1005400075018102950175038101050109300931A9
:100550001581257F95027508810609381581257F4B
:10056000950175088106050C0A38021581257F95CD
:100570000175088106C0C005010980A10185031627
:1005800001002603001A81002A830075109501815D
:1005900000C0050C0901A1018504160100269C027A
:1005A0001A01002A9C02751095018100C0050109FD
:1005B00006A1018505050719E029E7150025019524
:1005C0000875018102050819012905950575019134
:1005D000029501750391010507190029EF15002502
:1005E0000195F075018102C005010906A101050709
:1005F00019E029E71500250195087501810295018B
:1006000075088101050819012905950575019102F3
:100610009501750391010507190029FF150026FFB3
:1006200000950675088100C009023B00020100A088
:10063000FA09040000010301010009211101000170
:100640002240000705810308000A09040100010394
:1006500000000009211101000122C00007058203EA
:1006600020000A1201100100000008EDFE0713012E
:10067000000102030104033000000016034500726C
:100680000067006F0044006F007800200045005AAA
:1006900000000016034500720067006F0044006F01
:1006A000007800200045005A0000000403090400FF
:1006B00011241FBECFEFDAE0DEBFCDBF13E0A0E014
:1006C000B1E0E6E8FBE502C005900D92AE36B10759
:1006D000D9F726E0AEE6B3E001C01D92AC30B20718
:1006E000E1F70E942D140C94C12D0C9400008F9200
:1006F0009F92AF92BF92CF92DF92EF92FF920F93B1
:100700001F93CF93DF93CDB7DEB728970FB6F8943A
:10071000DEBF0FBECDBFFC01F080118183819481CB
:10072000892B09F463C71F3F21F40FEFF01609F47A
:100730005DC76F0185E0DE01119601900D928A95EB
:10074000E1F7F601228189819A81222349F00E94F2
:10075000601A082F682F89819A810E94D91A03C0D4
:100760000E94AC1A082F26E0129FF001112434E5F4
:10077000039FE00DF11D1124EF0DF11DEE0FFF1F82
:10078000E857FE4F05911491F6018281073FFCE581
:100790001F07D9F048F4043F3CE5130791F0063FEA
:1007A0009CE5190751F0C0C0083FECE51E07A9F011
:1007B000093FFCE51F07E1F1B7C0882309F416C71C
:1007C00069C0882309F412C780C0882309F40EC7C2
:1007D00081E00E94E4208CEA32C0882309F406C735
:1007E00081E00E94E42086E5809302068FEF8093EB
:1007F000030680E88093040660910106709102066A
:10080000809103069091040628960FB6F894DEBFF7
:100810000FBECDBFDF91CF911F910F91FF90EF9051
:10082000DF90CF90BF90AF909F908F900C94DE2080
:10083000882309F4DBC681E00E94E4208BE18093E9
:1008400002068FEF80930306D5CF10926F03F60157
:1008500092810A3CFCE51F0709F459C208F449C11A
:10086000013D2CE5120709F490C240F1053DECE58D
:100870001E0709F4B9C208F480C10D3D8CE51807C4
:1008800009F4BDC20E3DECE51E0709F07EC19923B7
:1008900009F4ACC628960FB6F894DEBF0FBECDBFE4
:1008A000DF91CF911F910F91FF90EF90DF90CF904C
:1008B000BF90AF909F908F900C94C2190D3C8CE527
:1008C000180729F4992309F491C681E019C00E3C58
:1008D000ECE51E0708F447C10F3C3CE5130709F49B
:1008E00038C208F044C2992309F480C680910106F9
:1008F00086958695825C8F73833008F4C4C182E04C
:1009000028960FB6F894DEBF0FBECDBFDF91CF9112
:100910001F910F91FF90EF90DF90CF90BF90AF901D
:100920009F908F900C94E420882319F1033E2CE5CE
:100930001207C1F050F4013E8CE5180781F0023E29
:100940009CE51907B1F481E010C0043EECE51E07F8
:1009500059F0053EFCE51F0761F484E006C01092E3
:100960007C0305C082E001C083E080937C030E9489
:100970005F2217FF73C0F6018281882309F46EC0DD
:100980008091B60580936E031092B60580917C032A
:10099000813071F048F08230D1F08430F1F486EE8D
:1009A0000E94F12A88E117C082EE0E94042B15C034
:1009B00089E19BE00E94C82488E10E94042B88E121
:1009C0000E948A2A89E09BE00E94C82406C082EE29
:1009D0000E94042B87E50E94F12A8FE39CE901978E
:1009E000F1F700C000007801E894F7F85CE0A52E6C
:1009F000B12CC7010A2C02C0969587950A94E2F79C
:100A0000282F2F7041F0822F90E02A3010F44D965D
:100A100004C0069702C087E290E00E94F12A94E0A9
:100A2000A91AB108ECEFAE16EFEFBE0611F78091F0
:100A30007C03813039F040F0823031F0843051F461
:100A400088E206C08CE204C082EE0E948A2A02C0BC
:100A50000E94F12A80916E038093B605003FFCE569
:100A60001F07C1F188F4083D3CE51307D9F0093DA3
:100A70008CE51807D9F1073D9CE5190709F0E5CE8B
:100A800026E241EE61EE11C0023FECE51E0751F196
:100A900028F1033F2CE5120709F0D7CE27E246EEF6
:100AA00066EE03C027E245EE65EEC60128960FB656
:100AB000F894DEBF0FBECDBFDF91CF911F910F9194
:100AC000FF90EF90DF90CF90BF90AF909F908F906E
:100AD0000C946F2026E240EE60EEE7CF27E244EE72
:100AE00064EEE3CF26E242EE62EEDFCF28E241E0A1
:100AF000DBCF033C3CE5130709F4A3C0E0F4053168
:100B0000ECE51E0770F40230FCE51F0708F07EC11B
:100B100001152CE51207F1F101301C4509F47CC0E8
:100B200010C206318CE5180709F4D7C1023C1C45F8
:100B300009F47BC006C2063CFCE51F0709F4BEC0F1
:100B400050F4043C3CE5130709F496C0053C1C45F1
:100B500009F4ADC0F6C1083CECE51E0709F4C1C0BC
:100B600008F4B5C0CAC00B3CFCE51F0709F4DBC0A4
:100B70000C3C1C4509F4E1C0E4C1033D2CE512071F
:100B800009F41FC108F40FC121C10C3D1C4509F037
:100B9000D8C12FC1992309F429C51092B6050E9426
:100BA000622A0FEF14E32CE0015010402040E1F7DF
:100BB00000C00000F89481E08093E00080E2809320
:100BC000D8001092C9008FE19EE40197F1F700C0B0
:100BD00000001DBA109268001CBC10BE1FBA109213
:100BE0007A0010926E0010926F00109271001092B5
:100BF00072001092C9001092BC0014B817B81AB84D
:100C00001DB810BA1092BC0015B818B81BB81EB8A1
:100C100011BA0C94003FEAC4992309F4E7C4809107
:100C2000AB0381608093AB03E1C4992309F4DEC474
:100C30009091010681E089278093010610920601B8
:100C4000DBCD992309F4D2C48091B6058272D9F024
:100C500028960FB6F894DEBF0FBECDBFDF91CF91BF
:100C60001F910F91FF90EF90DF90CF90BF90AF90CA
:100C70009F908F900C94F420992309F4B7C480912D
:100C8000B605827229F328960FB6F894DEBF0FBE20
:100C9000CDBFDF91CF911F910F91FF90EF90DF902B
:100CA000CF90BF90AF909F908F900C94122199237A
:100CB00009F49CC480910206885F06C0992309F458
:100CC00095C48091020688508093020695CD9923A1
:100CD00009F48CC42091030630E1230F08F42FEFB0
:100CE00009C0992309F482C42091030630E1231B33
:100CF00008F420E0209303067FCD992309F476C4FD
:100D00002091040630E1230F08F42FEF09C0992346
:100D100009F46CC42091040630E1231B08F420E0A0
:100D20002093040669CD992309F460C42091050637
:100D300030E1230F08F42FEF09C0992309F456C4BA
:100D40002091050630E1231B08F420E020930506DE
:100D500053CD992309F44AC480910106869586955E
:100D6000865C8F73823008F48ECF86E0C9CD9923DC
:100D700009F43CC48091010686958695895C8F7341
:100D8000853008F480CF89E0BBCD992309F42EC4C7
:100D900080910106869586958F5C8F73853008F467
:100DA00072CF8FE0ADCD992309F420C48091010664
:100DB00086958695855D8F73823008F464CF85E1D2
:100DC0009FCD992309F412C488E19ACD992309F49F
:100DD0000DC48091010686958695895D8F73893053
:100DE00008F451CF89E18CCD992309F4FFC383E244
:100DF00087CD992309F4FAC31092BA03F7C3992354
:100E000009F4F4C382E08093BA03F0C3992309F490
:100E100098C00E94B719811102C00E94C21984E0D3
:100E200090E00E941E2C90E090938F0380938E039D
:100E3000F801E350FC45E231F10530F4EA5AFF4F86
:100E400080918E030C948E2C80918E03816027C03C
:100E5000826025C0846023C0806121C080621FC081
:100E600080641DC080681BC08460886018C08E7F4D
:100E700016C08D7F14C08B7F12C08F7E10C08F7DF7
:100E80000EC08F7B0CC08F770AC08B7F877F07C017
:100E900087FB222720F991E0922790FB87F9809326
:100EA0008E0360918E0384E090E00E94322C1092B9
:100EB000B60528960FB6F894DEBF0FBECDBFDF9102
:100EC000CF911F910F91FF90EF90DF90CF90BF9047
:100ED000AF909F908F900C94622A8091B6059923D1
:100EE00089F0982F9A7A81E009F480E0809370036A
:100EF000811102C069E201C065E38CEB93E00E94BE
:100F00007F190BC080917003811102C069E201C09A
:100F100065E38CEB93E00E94541928960FB6F89481
:100F2000DEBF0FBECDBFDF91CF911F910F91FF901C
:100F3000EF90DF90CF90BF90AF909F908F900C94E8
:100F40001A1AF60100811181992349F0C8010E9403
:100F5000601AF82E682FC8010E94D91A04C0C8016F
:100F60000E94AC1AF82EB8018F2D0E94D00B182FBA
:100F7000382FF601258122952F70028101111092E0
:100F8000510480914F048770A9F0002399F080E20A
:100F9000810F883078F082E02F8338879E830E940B
:100FA000A51B80914F048770EE24E3942F81388530
:100FB0009E818111E12CA92EA2944FE0A422B12C94
:100FC000FCE0AF16B10408F0DAC2F501E859FF4FB2
:100FD0000C948E2C892F807F9F70F92E882319F016
:100FE000F29480EFF8220023B9F0FF2009F458C2F0
:100FF00080E2810F883010F0311106C09091B60563
:10100000F92AF092B60505C090915104F92AF092A0
:1010100051040E941A1A44C2812F38870E948A2ADA
:101020003885FF2009F4ABC2105EF094183010F040
:10103000311106C09091B605F922F092B60505C0AF
:1010400090915104F922F09251040E941A1A97C209
:10105000492F407F892F8F70403211F08295807F19
:10106000332319F03130E9F025C0002381F03091AD
:101070005204222351F0213041F4982F932B391739
:1010800009F47DC2909352047AC2832B91C122232A
:1010900019F0213009F473C28E830E94141A8E81D4
:1010A0008DC1002321F0223008F069C281C12111D5
:1010B00066C284C1002321F0222309F479C1F0C162
:1010C000222309F47BC1FEC1292F26952695237082
:1010D00030E02115310521F02130310559F04FC2A2
:1010E000002319F0812F937002C080E090E00E94ED
:1010F0004D2053C2002319F0812F937002C080E06D
:1011000090E00E94372049C20023F9F0153F51F0CA
:10111000163F71F0143FA9F480917103909172030E
:1011200081600BC08091710390917203826005C051
:101130008091710390917203846090937203809305
:101140007103812F0E9425181EC0153F51F0163FD4
:1011500071F0143FA9F480917103909172038E7F16
:101160000BC080917103909172038D7F05C08091B7
:101170007103909172038B7F90937203809371033C
:10118000812F0E945B170E94151907C2892F837057
:1011900009F079C00111FFC1812F82958695877072
:1011A000880F880F412F4F7050E060E070E04A01D7
:1011B0005B01082E04C0880C991CAA1CBB1C0A9455
:1011C000D2F714FF14C04FE050E060E070E08A01F5
:1011D0009B0104C0000F111F221F331F8A95D2F7F5
:1011E000B901A801409550956095709503C040E005
:1011F00050E0BA01969596959370892F90E00091F2
:1012000053041091540420915504309156048230B7
:101210009105A9F083309105E9F0019759F048292B
:1012200059296A297B29CB01BA01602371238223C2
:10123000932326C0802A912AA22AB32A1BC04829B8
:1012400059296A297B29CB01BA0160277127822796
:10125000932716C0CB01BA01602371238223932305
:101260000E94DF1B40915304509154046091550437
:1012700070915604CB01BA01682979298A299B29E2
:101280000E94DF1B88C1002319F0892F817001C0E3
:101290008695882309F47FC1812F82958695877072
:1012A000880F880F412F4F7050E060E070E04A01D6
:1012B0005B01082E04C0880C991CAA1CBB1C0A9454
:1012C000D2F714FF14C04FE050E060E070E08A01F4
:1012D0009B0104C0000F111F221F331F8A95D2F7F4
:1012E000B901A801409550956095709503C040E004
:1012F00050E0BA01969596959370892F90E00091F1
:101300004B0410914C0420914D0430914E048230D6
:101310009105A9F083309105E9F0019759F048292A
:1013200059296A297B29CB01BA01602371238223C1
:10133000932326C0802A912AA22AB32A1BC04829B7
:1013400059296A297B29CB01BA0160277127822795
:10135000932716C0CB01BA01602371238223932304
:101360000E94091B40914B0450914C0460914D0424
:1013700070914E04CB01BA01682979298A299B29E9
:101380000E94091B08C1412F50E0FA01E05EF109FB
:10139000E531F10508F07FC0EC58FF4F0C948E2C1E
:1013A0001F70892F8F71002331F00E94BE1B812F87
:1013B0000E94802AE4C00E94801B812F0E94752A0F
:1013C000DEC0002311F12111DAC0292F2F7181E035
:1013D00090E0A0E0B0E0AC01BD0104C0440F551F97
:1013E000661F771F2A95D2F780914B0490914C0489
:1013F000A0914D04B0914E048A019B010827192742
:101400002A273B27C901B80125C0223008F0B7C000
:10141000DCCF002329F0892F8F712EC00023D9F350
:10142000892F8F710E94801BAAC0002381F0292F71
:101430002F7181E090E0A0E0B0E0BC01CD0104C0DC
:10144000660F771F881F991F2A95D2F703C060E0A7
:1014500070E0CB010E94091B92C0002381F0192F7C
:101460001F71812F0E94BE1B28E0129FC001112412
:10147000836080934F04812F0E94BE1B80C081E057
:101480002F830E94A51B2F81223008F478C082E0B0
:101490000E94A51B74C0002339F0222309F4BBCF9E
:1014A000812F0E94042B6BC0222309F4B9CF19337A
:1014B00049F43FEF83EC99E0315080409040E1F7F0
:1014C00000C00000812F0E948A2A59C0323FB1F02B
:1014D00028F4303F49F0313FF9F028C0343FB9F0EB
:1014E00058F0353F71F022C0002309F456C09091A6
:1014F000070681E0892708C081E0082700930706D6
:101500004CC001114AC081E08093070646C001111A
:1015100044C01092070641C0002329F080910606BE
:10152000882329F329C0222311F337C080910606AE
:101530002223C1F0882341F09091070681E089279A
:101540008093070610920606812F002319F00E944F
:10155000042B23C00E948A2A86E0F60111928A9504
:10156000E9F71BC08823C9F0011117C09091070645
:1015700081E0892780930706109206060EC0F8E0E6
:10158000AF16B10441F04CF01AE0A11AB10822E004
:10159000A216B10410F40E946320EE2039F180916C
:1015A0004F0480FD23C0F6011282859585958595AF
:1015B0000E94BE1BC6010E94770380914F0485954F
:1015C0008595859528960FB6F894DEBF0FBECDBFE2
:1015D000DF91CF911F910F91FF90EF90DF90CF900F
:1015E000BF90AF909F908F900C94801B28960FB661
:1015F000F894DEBF0FBECDBFDF91CF911F910F9149
:10160000FF90EF90DF90CF90BF90AF909F908F9022
:101610000895282F277081E090E001C0880F2A9557
:10162000EAF78095909151048923809351040C949A
:101630001A1A282F277081E090E001C0880F2A95A0
:10164000EAF790915104892B809351040C941A1A53
:10165000CF93E82F873058F58091090190910A01C6
:10166000892B09F042C0CE2F80E40E94AF229093D4
:101670000A0180930901892BB1F482E10E9488223A
:1016800090930A0180930901892B69F481E090E02D
:1016900001C0880FCA95EAF780950E94882290932E
:1016A0000A018093090184E98093BC001EC090E088
:1016B000FC013797E730F105C0F4E757FF4F0C9472
:1016C0008E2C209A289811C0219A29980EC0229A0F
:1016D0002A980BC0239A2B9808C0529A5A9805C092
:1016E000539A5B9802C03E9A4698CF910895CF9343
:1016F000DF93873008F047C08091090190910A017B
:10170000892B09F049C080E40E94AF2290930A011E
:1017100080930901892B11F080E031C083E10E94A0
:10172000882290930A0180930901892BA9F781E40B
:101730000E94AF2290930A0180930901892B61F7DF
:1017400084E88093BC000E940919EC019091BC00D0
:1017500097FD0EC00E9409198C1B9D0B84369105C4
:10176000A8F38EEF9FEF90930A0180930901D4CFE5
:101770008091BB00809510920A011092090194E9B2
:101780009093BC000AC09FB18FB1807F86958695EB
:101790009370892B809501C080E0DF91CF910895EF
:1017A000CF93DF9326E0729FF001112434E5839FED
:1017B000E00DF11D1124E60FF11DEE0FFF1FE8579C
:1017C000FE4FC591D491CE01C238D10549F1B0F494
:1017D000C133D10509F464C048F4C932D10509F414
:1017E00058C0CA32D10509F462C068C0C533D105FA
:1017F00009F448C0C933D10599F060C0C33ED10592
:1018000041F138F4C03ED10591F0C23ED105B1F0AE
:1018100055C0C63ED10521F1C73ED10561F14EC08C
:1018200020918E0320FD14C221FD12C213C220910B
:101830008E0320FF0FC289E390E00CC220918E033B
:1018400022FF08C280918E0384FDB4C183EE90E034
:1018500001C280918E0382FFF5CF82EE90E0FAC143
:1018600020918E0323FFF6C180918E0384FDA2C1D7
:1018700087EE90E0EFC180918E0383FFF5CF86EE77
:1018800090E0E8C120918E0325FFE4C189E290E059
:10189000E1C120918E0325FFDDC185E390E0DAC12F
:1018A00020918E0326FFD6C18AE290E0D3C1209119
:1018B0008E0326FFCFC181E390E0CCC1C11520E5A6
:1018C000D20708F047C0C11530E4D30708F034C18F
:1018D000C83ED10518F5C03ED10508F0BBC1C83AD5
:1018E000D10570F4C53AD10508F0B0C0C130D105BA
:1018F00009F4B0C108F45EC1249708F45BC1AAC121
:10190000CF3BD10508F4ADC0C03CD10508F452C1AD
:10191000FE01EE0FFF1FE855FD4F02C1C11520E289
:10192000D20760F4C11531E0D30708F093C1C03F7E
:10193000D10508F43FC1CE0190658CC1C11580E38B
:10194000D80708F0F0C0FE01FF70EE0FFF1FE85D42
:10195000FB4FE6C0C11595E5D90708F044C0C11595
:1019600024E5D20708F000C1C11532E5D30710F510
:10197000C11581E5D80708F0E3C02C2F237081E062
:1019800090E002C0880F991F2A95E2F79C689E019B
:1019900074E0369527957A95E1F72370922BEC2F1A
:1019A000EF70E695E69530E2E39FF00111248E2B6F
:1019B0009F2B50C18C2F86958695AE01437055277D
:1019C000C115D34508F0C1C090E2899F9001112450
:1019D00081E090E002C0880F991F4A95E2F7822BC0
:1019E000932B9C6837C1C1152AE5D207A0F4C11515
:1019F00039E5D30708F0C6C0C11586E5D80708F455
:101A0000B8C0C11598E5D90708F4D4C09C2F882721
:101A1000806F906A1FC1C1152BE5D20708F4CAC0B8
:101A2000CE01C1153CE5D30708F4C1C0905681151D
:101A3000904208F0BFC08D2F8F710E946522FE0179
:101A4000FF27F0628F719F01382BAFC0C53AD105D7
:101A500009F4B3C0C63AD10509F0B2C082E890E4F7
:101A6000F9C0C83AD10509F4AEC0C93AD10509F4A4
:101A7000ADC0CA3AD10509F4ACC0CB3AD10509F4DE
:101A8000ABC0CC3AD10509F4AAC0CB3BD10509F4CF
:101A9000A9C0CC3BD10509F4A8C0CD3AD10509F4C1
:101AA000A7C0C03BD10509F4A6C0CE3AD10509F4C0
:101AB000A5C0CF3AD10509F4A4C0C13BD10509F4B2
:101AC000A3C0C23BD10509F4A2C0C33BD10509F4B0
:101AD000A1C0C43BD10509F4A0C0C53BD10509F4A0
:101AE0009FC0C63BD10509F49EC0C73BD10509F490
:101AF0009DC0C83BD10509F49CC0C93BD10509F480
:101B00009BC0CD3BD10509F49AC0CE3BD10509F469
:101B100099C0CA3BD10509F498C080E094E49AC00A
:101B20008591949197C09E013327C901D3FF02C0CC
:101B3000986C90C0906C8EC0CE019F70906A8AC0E5
:101B40009C2F8827816F906A85C090E2899F9001C1
:101B5000112481E090E002C0880F991F4A95E2F7B6
:101B6000822B932B9A6876C09C2F8827846F906A6B
:101B700071C08C2F0E9465228F7190E0982F88276A
:101B8000906268C08C2F8F700E946522FE0194E0E5
:101B9000F695E7959A95E1F7EF70F0E0FE2FEE27C6
:101BA000F06A8F70806E9F01282BC90153C099275E
:101BB000906650C080E090E04DC081E890E44AC05B
:101BC00083E890E447C082EE94E444C089EE94E454
:101BD00041C08AEE94E43EC085EB94E43BC086EBC2
:101BE00094E438C083EB94E435C084EB94E432C0D1
:101BF00087EB94E42FC08CEC94E42CC08DEC94E43F
:101C000029C083E895E426C08AE895E423C082E9E8
:101C100095E420C084E995E41DC081E296E41AC0F1
:101C200083E296E417C084E296E414C085E296E469
:101C300011C086E296E40EC087E296E40BC08FE600
:101C400094E408C080E794E405C08AE296E402C008
:101C500080EE90E0DF91CF91089580E290E0909344
:101C60000A018093090180917903811111C01092BA
:101C7000B9008CE08093B80081E0809379032FEF66
:101C800083ED90E3215080409040E1F700C00000D8
:101C900080E40E94AF2290930A0180930901892B6E
:101CA00009F040C080E00E94882290930A0180934E
:101CB0000901892BB9F580E00E94882290930A01DE
:101CC00080930901892B71F58FE30E9488229093FC
:101CD0000A0180930901892B29F584E98093BC00CE
:101CE00080E40E94AF2290930A0180930901892B1E
:101CF000C9F48CE00E94882290930A018093090124
:101D0000892B81F480E00E94882290930A018093BD
:101D10000901892B39F48FE30E94882290930A01EC
:101D20008093090184E98093BC00809109010895A2
:101D300056985E9825982D9826982E9827982F9833
:101D40008FEF90E0909389008093880090938B00B0
:101D500080938A0090938D0080938C00259A2D9A11
:101D60002FEF80E792E0215080409040E1F700C0E3
:101D70000000269A2E9A2FEF80E792E021508040B3
:101D80009040E1F700C00000279A2F9A2FEF80E7DC
:101D900092E0215080409040E1F700C0000025987B
:101DA0002D982FEF80E792E0215080409040E1F79E
:101DB00000C0000026982E982FEF80E792E0215077
:101DC00080409040E1F700C0000027982F98569877
:101DD0005E9825982D9826982E9827982F980895E4
:101DE00084B1807F84B985B1807F85B98AB1837FD2
:101DF0008AB98BB1837F8BB93E984698089580B39A
:101E00008C7080BB81B3836F81BB08958F929F924A
:101E1000AF92BF92CF92DF92EF92FF920F931F93F8
:101E2000CF93DF931F92CDB7DEB7809109019091D8
:101E30000A01892B91F0809178038F5F809378035A
:101E400081110BC00E942D0E90E090930A018093A7
:101E50000901892B11F40E94980E00E813E067E84D
:101E6000E62E63E0F62E6801812C912C57E0A52E1A
:101E7000A80C882D0E94280B8A2D0E94280B882DE3
:101E80000E94770BD6019C91981721F08C93BB246C
:101E9000B39401C0B12C8A2D0E94770BF701908179
:101EA000981719F0808381E001C080E0B82A9B2850
:101EB0000E94F00E8394FFEFCF1ADF0A2FEFE21A91
:101EC000F20A47E08412D2CF0E9409196AEF70E04B
:101ED0000E94662C9C01682F80917303882309F46B
:101EE0005BC010927303E0917A03F0917B03DF01F2
:101EF0001E9690E07BEF4AEFE42EF12C80818B3F21
:101F0000A9F0482F50E0681728F06901C41AD50AD3
:101F1000A60106C06701C41AD50AA601420F531FC5
:101F20004F30510514F0708301C091E03196EA17EB
:101F3000FB0721F790937303911030C0992371F13F
:101F4000609174037091750380917603909177038B
:101F50000E94B3184FB7F894009157041091580499
:101F60002091590430915A044FBF00937403109389
:101F7000750320937603309377038090FD0590904E
:101F8000FE05A090FF05B09000064FEF8416940662
:101F9000A406B40619F543C0992091F2E0907A03A3
:101FA000F0907B0380917303E3E9F3E02EE02E0FC2
:101FB0003081D8019D918D01D7014C914B3F29F47F
:101FC000391719F06C93908381E0BFEFEB1AFB0A8D
:101FD00031962E13EDCF80937303B2CFAB01BC01CA
:101FE000662777276A017B01C094D094E094F0942F
:101FF000C814D904EA04FB0420F48FEF9FEFDC013E
:1020000006C0DB01CA01880D991DAA1DBB1D809366
:10201000FD059093FE05A093FF05B0930006809107
:102020000106982F937021F0B82EB694B69401C093
:10203000B12C909106019130A1F038F0923009F462
:102040004DC1933009F455C165C11092160100933A
:10205000F9051093FA052093FB053093FC0581E008
:1020600045C190910801B9120EC0837090E0209193
:10207000070130E051E040E08217930709F450E097
:10208000852F942F02C081E090E0282F21702093AB
:1020900018014B2D50E04531510508F00DC1FA01F2
:1020A000E057FF4F0C948E2C20911601892B09F4D8
:1020B00003C1220F822F880F880F022F080F1AE00A
:1020C000100F113308F010E3011708F0B6C020E03C
:1020D00040E060E0802F90E00E94DC200F5FF4CFB2
:1020E00080911601E82EEE0C8E2D880F880FE80ED9
:1020F0001AE01E0D113308F010E360910206709192
:102100000306809104060E94C621062FF82EE116D0
:1021100008F093C0EE2DF0E0DF01A35CBC4F8C9182
:1021200090911701982341F02F2D472F602FCF0159
:1021300079830E94DC207981E394E9CF80911601B4
:10214000A82EAA0C8A2D880F880FA80E1AE01A0D47
:10215000113308F010E3D0900306C09004062091DC
:10216000050600E4029F012D1124A11608F065C0A8
:10217000EA2CF12CF701E35CFC4F80819091170170
:102180009823B1F0F701EE0FFF1FE252FD4F90814F
:1021900092959F7060910206099F600D11247D2D1C
:1021A0008C2D0E94C621472F282FC7010E94DC20BA
:1021B000A394DBCF80911601E82EEE0C8E2D880FB4
:1021C000880FE80E1AE01E0D113308F010E360913D
:1021D00005066695669566958091F9059091FA05D4
:1021E0000E94BB21009104060E944021805887FD77
:1021F0008195880F282F209F212D1124822F6091F7
:102200000206709103060E94C621062FF82EE116E1
:10221000A0F4EE2DF0E0DF01A35CBC4F8C91909117
:102220001701982341F02F2D472F602FCF0179837D
:102230000E94DC207981E394EACF81E01033E8F159
:102240003BC081E29DE11AC089EF9CE117C083EE9B
:102250009DE11FC08FEC9DE11CC08AEB9DE11EC07B
:1022600085EA9DE11BC086EF9CE108C08BEE9CE1F6
:1022700005C080EE9CE102C088EC9CE10E946B24CA
:102280001CC08CEB9CE10AC083E991E202C08FE89C
:102290009DE10E94FE2311C08DE79DE10E946E2307
:1022A0000CC08BE89CE105C08AE59CE102C08BE193
:1022B0009CE10E94F92201C080E0909116019F5F8D
:1022C00090931601811126C082E0809306018091CF
:1022D000180181111FC0BB2041F01CC0B092080141
:1022E0008370809307010E94251E83E0809306017E
:1022F00011C06091F9057091FA058091FB059091EC
:10230000FC050E94B318603171058105910510F03C
:102310001092060181E00F90DF91CF911F910F91F4
:10232000FF90EF90DF90CF90BF90AF909F908F90F5
:102330000895E8EDF0E080818E7F80831092E200C6
:102340001092DA001092E100A0EEB0E08C91816072
:102350008C9380818F77808319BCA7EDB0E08C913E
:102360008E7F8C9380818F7E80831092BB03089533
:102370001F920F920FB60F9211242F933F934F93FA
:102380005F936F937F938F939F93AF93BF93CF93FD
:10239000DF93EF93FF93C091E900CF708091EC0041
:1023A000D82FD17080FDD0E81092E9008091F00024
:1023B000877F8093F00078940E9426251092E90090
:1023C0008091F00088608093F000CD2BCF70C09397
:1023D000E900FF91EF91DF91CF91BF91AF919F9174
:1023E0008F917F916F915F914F913F912F910F90BE
:1023F0000FBE0F901F9018952091E4003091E500DA
:1024000095E64091EC00842F817040FF22C08091BE
:10241000E80080FD1CC08091DB05882391F08530A9
:1024200091F08091EB0085FD10C04091E400509147
:10243000E5004217530729F39A01915011F784E000
:10244000089582E0089583E0089581E0089580E092
:1024500008954091E80042FFDECF08958091DD05A8
:1024600087FF11C08091E80082FD05C08091DB05E7
:102470008111F8CF11C08091E8008B770BC080915B
:10248000DB05882349F08091E80080FFF8CF809138
:10249000E8008E778093E8000895982F973058F5DC
:1024A0009093E900981739F07091EC002091ED00BD
:1024B0005091F00003C0242F762F50E021FF19C067
:1024C0003091EB003E7F3093EB003091ED003D7F8B
:1024D0003093ED003091EB0031603093EB0070935E
:1024E000EC002093ED005093F0002091EE0027FFC8
:1024F00007C09F5FD3CF8F708093E90081E008957C
:1025000080E00895CF92DF92EF92FF920F931F9396
:10251000CF93DF93C8EDD0E088818F7E8883E7ED8D
:10252000F0E080818160808384E082BF81E08093DD
:10253000BB0388818E7F888302EE10E0F801108251
:102540001092DA0081EEC82ED12CF601108288811B
:102550008F77888388818068888388818F7D88834E
:1025600019BC1092DB051092DC051092DA0510926E
:10257000D90590EEE92EF12CF70180818B7F8083C5
:1025800088818160888342E060E080E00E944D1293
:10259000F60180818E7F8083F80180818160808355
:1025A000808188608083F70180818E7F808388812D
:1025B00080618883DF91CF911F910F91FF90EF9001
:1025C000DF90CF9008951F920F920FB60F921124B3
:1025D0002F933F934F935F936F937F938F939F932B
:1025E000AF93BF93EF93FF938091E10082FF09C007
:1025F0008091E20082FF05C08091E1008B7F809393
:10260000E1008091DA0080FF2AC08091D80080FF2D
:1026100026C08091DA008E7F8093DA008091D90005
:1026200080FF18C080E189BD82E189BD09B400FE48
:10263000FDCF81E08093DB058091BB0381110FC04A
:102640000E9499110E9482128091E200846080931E
:10265000E20005C019BC1092DB051092BB0380910B
:10266000E10080FF17C08091E20080FF13C08091DD
:10267000E2008E7F8093E2008091E200806180938F
:10268000E2008091D80080628093D80019BC85E078
:102690008093DB058091E10084FF34C08091E200EB
:1026A00084FF30C080E189BD82E189BD09B400FEAC
:1026B000FDCF8091D8008F7D8093D8008091E1007C
:1026C0008F7E8093E1008091E2008F7E8093E20014
:1026D0008091E20081608093E2008091DC05882394
:1026E00011F084E007C08091E30087FD02C081E023
:1026F00001C083E08093DB051092B6050E94622A38
:102700000E9463208091E10083FF27C08091E20056
:1027100083FF23C08091E100877F8093E10082E006
:102720008093DB051092DC058091E1008E7F809321
:10273000E1008091E2008E7F8093E2008091E200D0
:1027400080618093E20042E060E080E00E944D12F0
:102750008091F00088608093F000FF91EF91BF912D
:10276000AF919F918F917F916F915F914F913F9129
:102770002F910F900FBE0F901F9018952091E30599
:102780003091E4052617370748F06115710539F4D3
:102790002091E8002E772093E80001C0B90140E0C5
:1027A00061157105A9F12091DB05222309F443C0CD
:1027B000253009F442C02091E80023FD40C020915B
:1027C000E80022FD32C02091E80020FFE9CF4091CF
:1027D000F3002091F20030E0342BFC01CF016115B1
:1027E000710559F02830310540F481918093F10052
:1027F000615071092F5F3F4FF1CF41E02830310523
:1028000009F040E02091E8002E772093E800C8CF3F
:102810004111C9CF0AC08091DB05882361F0853062
:1028200061F08091E80083FD0AC08091E80082FF9A
:10283000F2CF80E0089582E0089583E0089581E07A
:1028400008958091BA03811107C08091DB0584301F
:1028500011F081E0089582E00895CF93DF93CDB722
:10286000DEB72A970FB6F894DEBF0FBECDBF84B790
:10287000877F84BF0FB6F894A89580916000886127
:1028800080936000109260000FBE80E8809361002A
:102890001092610085B7806885BF85B7806885BF65
:1028A0000E9499110E9482128091E20084608093BC
:1028B000E20078948091DB058823A1F01091E90073
:1028C0001F709091EC00892F817090FD80E8182B8B
:1028D0001092E9008091E80083FD0E9426251F7078
:1028E0001093E90082E084BD93E095BD9AEF97BD17
:1028F00080936E000E942D0E90E090930A018093C9
:1029000009010E94F00E0E94FF0EA0E8B3E0E3E987
:10291000F3E01EE0F12EFE0E11921D92FE12FCCF8E
:102920008EE090E00E94942C80937A0390937B0336
:10293000FC010E962BEF2193E817F907E1F70E94AF
:10294000B719811102C00E94C2190E948F1E0E94F5
:10295000B719811104C00E94C2190E94302188E079
:1029600090E00E94262C60930106709302068093EB
:102970000306909304068FE7809305066C7F71F43D
:102980000E94302188E090E00E94262C609301068E
:102990007093020680930306909304068CE090E007
:1029A0000E941E2C90E0A0E0B0E080937C03909306
:1029B0007D03A0937E03B0937F0389EA8093800018
:1029C00089E08093810024982C983F988AB18F7C6D
:1029D0008AB96E98479A8BB180638BB9769A0E94B8
:1029E000980E0E94B719811102C00E94C21982E09C
:1029F00090E00E941E2C8093AB0384E090E00E9444
:102A00001E2C90E090938F0380938E0383E090E0E0
:102A10000E941E2C682F70E080E090E00E94DF1B77
:102A20008BE091E090939103809390039924939489
:102A3000EE24EA94CC24C394D12C50E1452E62E1DB
:102A4000562E78E1A72EB12CE0E48E2E8091DB0586
:102A5000853009F043C08091DB05843009F1109284
:102A600092030FB6F894A895A09260000FBE8092D2
:102A7000600083B7817F846083BF83B7816083BF39
:102A80007894889583B78E7F83BF0FB6F894A89506
:102A900080916000886180936000109260000FBE9A
:102AA0008091DA05882391F20E942D0E90E0909398
:102AB0000A01809309010E94F00E0E94FF0EE3E9D3
:102AC000F3E01192FE12FDCF0E94060FE3E9F3E05E
:102AD00081918111F2C0FE12FBCFB8CF0E94060F88
:102AE000ECEAF3E0A3E9B3E000E010E0702F6D91B1
:102AF00021912627B1F180E090E030E0782EA90105
:102B0000082E02C0559547950A94E2F740FF25C06C
:102B100089837A83C60102C0880F991F7A94E2F7ED
:102B20003C01862F90E08621972121E0892B09F432
:102B300020E02B830E9409198160782F9D838C836C
:102B400049815A816B818D810E94611FF801E45592
:102B5000FC4F80816826608219C0019686309105FD
:102B600069F60F5F1F4F0E30110509F0BFCFEE82DF
:102B7000EF8218860E9409198160782F9A878987C9
:102B80004E815F8168858A850E94611F8091A803BC
:102B90009091A9030E94DF189C019091A7039923AB
:102BA00021F02431310508F47CC08091A3031091F9
:102BB000A40381110BC0111194C02091A503211110
:102BC00090C02091A60321118CC06BC09F3F19F0CB
:102BD0009F5F9093A703181624F40E940218809315
:102BE000A3038091A30387FF05C00E94021881956B
:102BF0008093A303111624F40E9402188093A40367
:102C00008091A40387FF05C00E94021881958093DC
:102C1000A4033091A303332301F12091A4032223C1
:102C2000E1F045EB3403C0011124892F990F990B72
:102C3000009719F08093A30302C09092A30335EB91
:102C40002303C0011124892F990F990B009719F0C4
:102C50008093A40302C09092A4038091A503181648
:102C600024F40E94E0178093A5038091A50387FFB9
:102C700005C00E94E01781958093A5038091A6036B
:102C8000181624F40E94E0178093A6038091A603EF
:102C900087FF05C00E94E01781958093A6030E94DC
:102CA00015191091AA030E946320181709F4CECEBB
:102CB0000E9463208093AA03C9CE49BC59BC09B4C1
:102CC00000FEFDCF8091D8008F7D8093D800809149
:102CD000E00082608093E0008091E00081FDFCCF05
:102CE000B5CE9F3F09F074CF7CCF8091B805089591
:102CF000CF93DF9300D01F92CDB7DEB72091DB05D5
:102D0000243031F523E02983805891099B838A83FD
:102D100082E08093E9008FEF9091E800815095FD6B
:102D200006C095ED9A95F1F700008111F5CF8091DD
:102D3000E80085FF0DC040E050E063E070E0CE01A8
:102D400001960E94EF248091E8008E778093E8003E
:102D50000F900F900F90DF91CF9108950F931F93D5
:102D6000CF93DF9300D01F92CDB7DEB78C010E94C6
:102D70002114823011F0843021F584E089831B8393
:102D80000A8382E08093E9008FEF9091E800815000
:102D900095FD06C095ED9A95F1F700008111F5CFEC
:102DA0008091E80085FF0DC040E050E063E070E0F6
:102DB000CE0101960E94EF248091E8008E778093E7
:102DC000E8000F900F900F90DF91CF911F910F911E
:102DD0000895CF93DF93EC010E942114823011F00B
:102DE0008430F9F482E08093E9009FEF8091E8005D
:102DF000915085FD06C085ED8A95F1F7000091118F
:102E0000F5CF8091E80085FF0CC040E050E066E01F
:102E100070E0CE010E94EF248091E8008E778093CD
:102E2000E800DF91CF910895CF93DF93EC010E94EA
:102E30002114823011F08430D9F580911501882356
:102E400039F080918E0387FF03C060E282E002C008
:102E500068E081E08093E9008FEF9091E800815075
:102E600095FD06C095ED9A95F1F700008111F5CF1B
:102E70008091E80085FF1CC080911501811105C07B
:102E800040E050E068E070E003C070E040E050E0F7
:102E9000CE010E94EF248091E8008E778093E800B5
:102EA00080E2FE01A9EBB5E001900D928A95E1F771
:102EB000DF91CF910895803F39F48091A40387FF7B
:102EC0006CC01092A40369C0813F29F48091A403CF
:102ED0001816BCF362C09091A303823F29F497FFB8
:102EE0005CC01092A30359C0833F19F41916CCF3A8
:102EF00054C0893F41F48091A50318160CF04DC0D1
:102F00001092A5034AC08A3F29F48091A50387FF48
:102F100044C0F6CF8B3F39F48091A60387FF3DC0B4
:102F20001092A6033AC08C3F29F48091A60318168C
:102F3000BCF333C0843F21F48091A2038E7F17C07D
:102F4000853F21F48091A2038D7F11C0863F21F43B
:102F50008091A2038B7F0BC0873F21F48091A20355
:102F6000877F05C0883F31F48091A2038F7E8093D4
:102F7000A20313C08D3F21F480915B048E7F0BC0B0
:102F80008E3F21F480915B048D7F05C08F3F29F433
:102F900080915B048B7F80935B048091A3038111FC
:102FA0000EC08091A40381110AC08091A5038111F4
:102FB00006C08091A603811102C01092A703089554
:102FC00080915B0480FD16C081FD16C082FD18C093
:102FD0008091A703882391F0883290F428E0829FA3
:102FE000C001112468E270E00E947A2C862F672BC2
:102FF00029F007C082E0089584E0089581E00895F3
:1030000088E0089580915B0480FD17C081FD17C0A2
:1030100082FD19C08091A703882399F08C3398F41E
:1030200023E2829FC00111246CE370E00E947A2C9D
:10303000862F672B49F481E0089588E0089581E1A7
:10304000089585E0089583E20895803F21F40E9469
:103050000218819504C0813F29F40E9402188093D0
:10306000A4030895823F21F40E940218819504C0B0
:10307000833F29F40E9402188093A3030895893F97
:1030800019F40E94E01705C08A3F31F40E94E0174E
:1030900081958093A50308958B3F21F40E94E0174A
:1030A000819504C08C3F29F40E94E0178093A60309
:1030B0000895843F21F48091A203816017C0853F69
:1030C00021F48091A203826011C0863F21F4809197
:1030D000A20384600BC0873F21F48091A203886023
:1030E00005C0883F31F48091A20380618093A203E0
:1030F00008958D3F21F480915B0481600BC08E3F69
:1031000021F480915B04826005C08F3F29F4809197
:103110005B04846080935B04089578941F920F92FF
:103120000FB60F9211248F939F93AF93BF9380910B
:10313000570490915804A0915904B0915A040196F3
:10314000A11DB11D8093570490935804A093590476
:10315000B0935A04BF91AF919F918F910F900FBE82
:103160000F901F901895CF92DF92EF92FF920F93DE
:103170001F932FB7F894C0905704D0905804E09054
:103180005904F0905A042FBF97018601061B170BB4
:10319000280B390BC616D706E806F90618F0C90140
:1031A000B80106C0C901B8016150710981099109CE
:1031B0001F910F91FF90EF90DF90CF900895CF92E5
:1031C000DF92EF92FF920F931F932FB7F8944091E5
:1031D0005704509158046091590470915A042FBFBC
:1031E0006A017B01EE24FF248C0120E030E0C01650
:1031F000D106E206F30610F4415051099A01281B4A
:10320000390BC9011F910F91FF90EF90DF90CF9084
:1032100008952FB7F8948091570490915804A09185
:103220005904B0915A042FBF0895E0919003F09192
:103230009103309749F082E08093A1030480F581E7
:10324000E02D81EA93E009950E9409199093A90362
:103250008093A80308951F920F920FB60F92112426
:103260008F939F93AF93BF9380919203811113C06B
:103270008091570490915804A0915904B0915A0438
:103280004196A11DB11D8093570490935804A093BB
:103290005904B0935A04BF91AF919F918F910F90B1
:1032A0000FBE0F901F90189520911501222321F039
:1032B00020918E0327FD04C0FC013296089619C0A8
:1032C000262F2695269526952E31C0F4FC01E20F77
:1032D000F11D677081E090E001C0880F6A95EAF700
:1032E000809592818923828308953196E817F907A2
:1032F00029F020812613F9CF1082F7CF089520916D
:103300001501222321F020918E0327FD05C0FC0129
:1033100032962FEF30E019C0262F26952695269558
:103320002E3120F5FC01E20FF11D677081E090E085
:1033300001C0880F6A95EAF79281892B82830895EC
:103340002F3F39F03F5F363041F041914613F8CFBF
:103350000DC04111F7CF232FF5CF2F3F39F0FC01DE
:10336000E20FF11D27FDFA9562830895089580E02C
:1033700090E00E942C2C21E08D3E9E4F09F020E031
:10338000822F08956DEE7EEF80E090E00E94502C39
:1033900060E082E090E00E94322C60E083E090E008
:1033A0000E94322C1092530410925404109255042F
:1033B0001092560460E084E090E00E94322C60E0BD
:1033C00085E090E00E94322C60E086E090E00E9470
:1033D000322C6FEF87E090E00E94322C40E050E00A
:1033E000BA0188E090E00E94442C60E08DE090E01B
:1033F0000E94322C40E050E0BA0188E190E00E9447
:10340000442C60E087E190E00E94322C40E050E0E4
:10341000BA018FE090E00E94442C40E050E0BA01F5
:1034200083E190E00C94442C80915204811110921D
:1034300052040895909151048091B605892B2091F2
:103440005004982F922B9093BC03809152048823B0
:10345000D9F0892B8093BC0380911501882331F02A
:1034600080918E0387FF02C08EE101C086E0EEEB03
:10347000F3E090E0815028F021912223D9F39F5F5F
:10348000F9CF91110E94141AE0919003F0919103E9
:103490003097A9F080911501882359F080918E030F
:1034A00087FF07C08091BC038093BD0385E08093B4
:1034B000BC030280F381E02D8CEB93E00994089526
:1034C000BF92CF92DF92EF92FF920F931F93CF9311
:1034D000DF938C01C0905304D0905404E0905504C5
:1034E000F090560480914B0490914C04A0914D04AF
:1034F000B0914E04C82AD92AEA2AFB2ACFE1D0E0AB
:10350000D701C6010C2E04C0B695A795979587954F
:103510000A94D2F780FF07C0BC2EB8018C2F0E94FE
:10352000D00B019719F4219758F7B12C8B2DDF910F
:10353000CF911F910F91FF90EF90DF90CF90BF90B0
:103540000895CF93DF93EC010E94601ABE010E94A0
:10355000D00BDF91CF910895292F220F920F990F51
:10356000890F682F669566956695982F977085E008
:10357000689FB001112440E050E080E0FA01E60FBE
:10358000F71FEC5EFB4F208130E0092E02C036951C
:1035900027950A94E2F721703327042E01C0220FE9
:1035A0000A94EAF7822B4F5F5F4F4530510531F7A0
:1035B0000895292F220F920F990F890FA82FA695F2
:1035C000A695A695877051E001C0550F8A95EAF738
:1035D00085E0A89FD001112420E030E070E0F901DF
:1035E000EA0FFB1FEC5EFB4F4081CB01022E02C0B5
:1035F000969587950A94E2F781709927819584279B
:103600008523842780832F5F3F4F2530310539F78D
:1036100008950F931F93AB01BC01CB01AA27BB27D1
:103620000097A105B10511F0E0E103C0DB01CA017B
:10363000E0E0092F1A2F2B2F332701151105210543
:10364000310519F0E85FD901C8018C019D01F4E052
:103650003695279517950795FA95D1F70115110518
:103660002105310519F0EC5FD901C8018C019D01DC
:10367000F2E03695279517950795FA95D1F701153C
:1036800011052105310519F0EE5FD901C801B69584
:10369000A79597958795892B8A2B8B2B09F0EF5F40
:1036A00056985E9825982D9826982E9827982F98AA
:1036B0008E2F90E0FC013197E730F105A8F4EB552F
:1036C000FF4F0C948E2C259A2D9A0EC0259A2D9A78
:1036D000269A2E9A09C0259A2D9A04C0259A2D9AC9
:1036E000269A2E9A279A2F9A40934B0450934C0473
:1036F00060934D0470934E041F910F910C94472AD0
:103700000F931F9341E050E060E070E004C0440F6D
:10371000551F661F771F8A95D2F740955095609583
:10372000709580914B0490914C04A0914D04B09100
:103730004E048A019B01082319232A233B23C90134
:10374000B8011F910F910C94091B20914F04809593
:10375000822380934F04982F977079F430E0482F9C
:10376000082E000C550B2417350739F085958595E3
:1037700085950E94801B10924F0408950F931F930C
:1037800041E050E060E070E004C0440F551F661F48
:10379000771F8A95D2F780914B0490914C04A091A9
:1037A0004D04B0914E048A019B01082B192B2A2B42
:1037B0003B2BC901B8011F910F910C94091B609319
:1037C00053047093540480935504909356040C94BE
:1037D000472A809113049091E203891719F08F5FB3
:1037E0008770FBCF08958033910520F5880F991FCE
:1037F000880F991FFC01EF5DFE4F5281338180815C
:1038000083707181E0E98E9FC00111248E579B4F18
:10381000FC01E70FF11DB4976083FC01E50FF11D7A
:10382000B4974083830F911DFC01B497208381E0FE
:10383000809381040895FC0130E0D901AA0FBB1FD9
:10384000A352BD4F9C91905797FD9195220F331F26
:10385000D901A252BD4F2C9130E020523109D9013B
:10386000AA0FBB1F2A0F3B1F4203D001439FB00D7D
:10387000112448E350E09A01291B310997FD339543
:10388000C901220F331FA901480F591F640390017A
:10389000659F300D11242A0F3B1F37FF02C02158AE
:1038A0003F4F220F232F221F330B80910206280F38
:1038B00020830895E22FF0E0DF01AA0FBB1FA25280
:1038C000BD4F2C9130E020523109220F331F4203AB
:1038D000D001439FB00D1124EE0FFF1FE352FD4FA7
:1038E000408150E040575109440F551F6403900137
:1038F000659F300D11242A0F3B1F37FF02C021584E
:103900003F4F220F232F221F330B30910206230F2C
:10391000FC01208308950F931F93E22FF0E0DF0155
:10392000AA0FBB1FA252BD4F0C9110E0005211090B
:103930004003D001419FB00D1124EE0FFF1FE35251
:10394000FD4F408150E04057510964039001659F4D
:10395000300D11242A0F3B1F37FF02C021583F4F63
:10396000220F232F221F330B30910206230FFC015D
:1039700020831F910F9108950F9343E0249F90019E
:10398000112435952795200FFC0120830F91089570
:10399000DC0170E0FB01EE0FFF1FE252FD4F908152
:1039A000905297FD9195660F771FFB01E352FD4FF3
:1039B000809102062081280F241B920F9C9308956A
:1039C000DC01E62FF0E0EE0FFF1FE252FD4F908189
:1039D000941B9C930895DC01E62FF0E0EE0FFF1F8F
:1039E000E352FD4F9081941B9C930895FC0140830A
:1039F0000895E62FF0E0EE0FFF1FE352FD4F208108
:103A000034EE239F212D11246091040670E030E0F4
:103A1000245E3F4F241B310937FF03C031952195A8
:103A2000310943E0220F331F4A95E1F7AB01421BF6
:103A3000530B9A0157FF02C020E030E0FC012283C3
:103A40000895E62FF0E0EE0FFF1FE352FD4F2081B7
:103A500034EE239F212D11246091030670E030E0A5
:103A6000245E3F4F241B310937FF03C03195219558
:103A7000310943E0220F331F4A95E1F7AB01421BA6
:103A8000530B9A0157FF02C020E030E0FC01218374
:103A90000895FC01CB01309721F477FF2CC080E81A
:103AA00008959F01F7FF04C0222733272E1B3F0BE9
:103AB000BC01621B730B280F391F97FD0DC0CB0192
:103AC00045E0880F991F4A95E1F7B9010E947A2CC9
:103AD00080E2861B682F09C0C90125E0880F991F65
:103AE0002A95E1F70E947A2C605A862FF7FF02C0D0
:103AF00081950895089580E00895EF92FF920F93C5
:103B0000CF937C01CA01C22FC01B0E94491DC81B54
:103B1000F701C083CF910F91FF90EF9008950F931D
:103B20001F93CF93DF931F92CDB7DEB78C01CA01ED
:103B300029830E94491D2981820FF80180830F90FB
:103B4000DF91CF911F910F910895EF92FF920F9304
:103B5000CF937C01201B90910406C22FC90FCA018C
:103B60000E94491DC81BF701C283CF910F91FF909E
:103B7000EF900895EF92FF920F93CF937C01201B5B
:103B800090910306C22FC90FCA010E94491DC81B8C
:103B9000F701C183CF910F91FF90EF9008950F939C
:103BA0001F93CF938C01CA01C0910406C21B0E94CF
:103BB000491D982F880F980FC91BF801C283CF9118
:103BC0001F910F9108950F931F93CF938C01CA01FA
:103BD000C0910306C21B0E94491D982F880F980FA1
:103BE000C91BF801C183CF911F910F910895EF92E6
:103BF000FF921F93CF93DF937B01182F110FC0E02B
:103C0000D0E08C2F8C5D8093E50520E030E0F90159
:103C1000EC0FFD1FEE0DFF1D8081F901EB51FA4FF6
:103C200081832F5F3F4F2031310589F761E170E0DB
:103C3000812F0E94D3246096C039D10511F7DF91FE
:103C4000CF911F91FF90EF90089580918104882378
:103C500051F062E874E084E70E94F71D62E175E0CC
:103C600087E70E94F71D109281040895E5EEF5E0C4
:103C70006083418362E070E0880F0C94D324CF937B
:103C8000DF93C82F4BE06DEF0E94361E40E06AE0E4
:103C90008C2F0E94361E8FE39CE90197F1F700C03C
:103CA000000040E060E08C2F0E94361E40E061E0A2
:103CB0008C2F0E94361E40E066E08C2F0E94361E3C
:103CC00040E06DEF8C2F0E94361ED0E040E06D2F5B
:103CD0008C2F0E94361EDF5FD231C1F740E06D2F7E
:103CE0008C2F0E94361EDF5FD432C1F740E06D2F6B
:103CF0008C2F0E94361EDF5FD43BC1F74BE06DEF87
:103D00008C2F0E94361E41E06AE08C2F0E94361EE6
:103D100040E06DEF8C2FDF91CF910C94361E7F9297
:103D20008F929F92AF92BF92CF92DF92EF92FF92CB
:103D30000F931F93CF93DF931092B9008CE0809381
:103D4000B80084E70E943F1E87E70E943F1EE4E21E
:103D5000EE2EE1E0FE2EC12CD12CF2E17F2EA8E068
:103D60008A2E912CAA24A394B12CF701329760815A
:103D700070E0CB0184973196E081F0E0B497D701F1
:103D80002C9130E024523109D601AA0FBB1FAA0F93
:103D9000BB1FAF5DBE4FCC91C370D0E0AC0197FFAD
:103DA00002C0495F5F4F63E0559547956A95E1F71B
:103DB0007C9E80017D9E100D1124040F111D045A5C
:103DC0001B4FB4010E947A2CA50102C0440F551F5D
:103DD0008A95E2F7CA01D8019C91892B8C93CF0177
:103DE000F7FD079653E0959587955A95E1F77C9EE8
:103DF00080017D9E100D1124080F111D045A1B4FC8
:103E0000CF01B4010E947A2CF50102C0EE0FFF1F12
:103E10008A95E2F7CF01D8019C91892B8C93C90137
:103E200037FD079643E0959587954A95E1F77C9E87
:103E3000F0017D9EF00D1124E80FF11DE45AFB4FB7
:103E4000C901B4010E947A2C950102C0220F331FD0
:103E50008A95E2F7C9019081892B80833FEFC31ACD
:103E6000D30A44E0E40EF11C50E3C516D10409F076
:103E70007CCF81E0809380040CE514E0C0E0D0E0CA
:103E8000D8014D918D016C2F84E70E94361EFE01F2
:103E9000E45AFB4F42896C2F87E70E94361E219619
:103EA000C231D10569F7DF91CF911F910F91FF903A
:103EB000EF90DF90CF90BF90AF909F908F907F90CA
:103EC0000895EF92FF920F931F93CF93DF93CDB797
:103ED000DEB767970FB6F894DEBF0FBECDBF4B8B32
:103EE0005C8B6D8B7E8B8F8B0E891F890115110565
:103EF000C1F15F3F11F44F3FA1F1E42EF12CA1E09D
:103F0000B0E0042E01C0AA0F0A94EAF7852F90E0D2
:103F1000662319F02091070606C09C0128553A4FE8
:103F2000F90120812A232223A9F046E0489F90012D
:103F3000499F300D1124F701E20FF31FEE0FFF1F11
:103F4000EF51FE4F40815181FC01E855FA4F9081BD
:103F5000A92B06C0FC01E855FA4FA0958081A82343
:103F6000A08386E0FE013D96DF01982F1D929A9571
:103F7000E9F74D875E876F87198B088BDE011796EF
:103F800001900D928A95E1F7CE0107960E947D2857
:103F9000811137C086E0FE013796DE01119601904F
:103FA0000D928A95E1F7FF81E8856A857B85611529
:103FB000710539F1EF3F11F4FF3F19F12091E20350
:103FC00030E0C9010196877099274091130450E0B1
:103FD0008417950779F1F983EA837D836C8396E0F2
:103FE000929FD001939FB00D1124AD51BC4FFE01A3
:103FF000319601900D929A95E1F78093E2030E9429
:10400000E91B16E0809113049091E203891711F1E6
:10401000189FC00111248D519C4F0E947D28882338
:10402000C9F08091130490E00196877099278093DE
:104030001304E8CF1092B6050E94622A1092E203A0
:1040400010921304ECEDF3E086E0DF011D928A95F7
:10405000E9F7D7CF67960FB6F894DEBF0FBECDBF96
:10406000DF91CF911F910F91FF90EF9008952091D4
:10407000A6053091A7058217930771F09093A705C5
:104080008093A605E0919003F0919103309721F081
:104090000084F185E02D099408952091A4053091C4
:1040A000A5058217930771F09093A5058093A40549
:1040B000E0919003F0919103309721F00680F78111
:1040C000E02D09940895E0919003F09191033097C9
:1040D00021F00190F081E02D099480E008950F9384
:1040E0001F93CF93DF93C62FD42F022FFC01828121
:1040F0008823C9F060936F030E9409199093A30568
:104100008093A20580E28C0F883008F050C0C77001
:1041100081E001C0880FCA95EAF7DF91CF911F9126
:104120000F910C94802A10916F03161330C0809168
:10413000A2059091A3050E94DF18883C910538F5EF
:10414000C0E2CD0F1D17B9F080E2810F883040F436
:10415000177081E001C0880F1A95EAF70E94752A4E
:10416000C83048F481E09D2F977001C0880F9A9560
:10417000EAF70E94802A802F0E94F12AC830B8F402
:10418000D77081E001C0880FDA95EAF70AC080E2B3
:104190008C0F883060F4C77081E001C0880FCA9529
:1041A000EAF7DF91CF911F910F910C94752ADF915F
:1041B000CF911F910F9108950C94F31BAB01BC019B
:1041C00088E090E00C94442CE1E0F6E0880F880F42
:1041D00090819370892B8083109206016081718198
:1041E000828193810C94DE2090910106892F86951F
:1041F0008695815C8F739370882321F0880F880FD8
:10420000892B02C0892F80658093010610920601D8
:104210006091010670910206809103069091040658
:104220000C94DE2090910106892F869586958F5FEC
:104230008F739370853120F4880F880F892B02C00B
:10424000892F846080930106109206016091010617
:104250007091020680910306909104060C94DE2072
:10426000E1E0F6E08DE2808311828FEF8283838329
:104270008FE7848360817181828193810C94DE2039
:10428000482F982F46FD9095E92FEF739F7046FDBC
:104290009F5FE295EF70EE0FF0E0E75EFE4F218149
:1042A000299F802D212D112482958F702295207FAA
:1042B000822B3081982F930F892F47FD819580584D
:1042C0000895BC018230910508F40895613E8EE1A5
:1042D000780748F49B0195E0369527959A95E1F784
:1042E00048E0420F01C04FEF91E0242F30E0290F4A
:1042F000311D35952795229FF001239FF00DF00D7C
:1043000011246E177F0718F44FEF420F05C02F3F9F
:10431000310539F091E0920F491738F78FEF890F87
:1043200008958FEF08950F931F93CF938C01C22FA1
:1043300067FD6195E8E3F0E0CF01861B910967FD19
:104340009395889F9001899F300D300D1124449FD3
:10435000C001459F900D900D1124820F931F0E9464
:104360006121982F880F980F9C0FF8019083CF91AF
:104370001F910F91089520E030E0A901869F412D03
:10438000969F400D511D1124CA010895CF92DF92CE
:10439000EF92FF920F931F93CF93DF937B01282F10
:1043A000382FE82FF0E0F11006C0E85DFB4F649174
:1043B000762F862F7BC00F2D10E046E0649FC00152
:1043C0001124CFEFD0E0BE010E94662CAB016BEA56
:1043D0006403C001659F900D11248E0D911D8E0DFB
:1043E000911D982F990F980FBE01601B710B6E9F46
:1043F000D0016F9FB00D7E9FB00D11248B2F9F9D1C
:10440000B0011124672F77277E01E61AF70AB7015A
:104410006E9F70016F9FF00C7E9FF00C11246E0157
:10442000C91AD108C09EB001C19E700DD09E700DFA
:104430001124672F7727C61BD70BCE9F8001CF9FF4
:10444000100DDE9F100D1124712F4230510591F097
:104450004CF441155105D9F041305105B1F4722F9A
:104460002F2D15C04430510561F044F04630510500
:1044700071F00BC02B2F812F732F09C07F2D2B2F95
:1044800002C0212F7B2F832F02C07B2F8F2DE22F85
:10449000F0E0E85DFB4F6491E72FF0E0E85DFB4F53
:1044A0007491E82FF0E0E85DFB4F8491DF91CF91AC
:1044B0001F910F91FF90EF90DF90CF900895609142
:1044C0007C038CE090E00C94322C90918E0392FF50
:1044D0000DC0282F2871283019F4877F846006C00A
:1044E000282F2471243011F48B7F886093FF0DC036
:1044F000282F2871283119F4877E846106C0282F5F
:104500002471243111F48B7E886194FD877E089597
:10451000CF93DF938093BB0084E88093BC000E941C
:104520000919EC019091BC0097FD0AC00E9409197D
:104530008C1B9D0B84369105A8F38EEF9FEF0CC06A
:104540002091B900287F81E090E0283211F480E0CA
:1045500090E0919581959109DF91CF9108950F9306
:104560001F93CF93DF93C82F1092BC0084EA8093EF
:10457000BC000E9409198C019091BC0097FD0AC0F3
:104580000E940919801B910B84369105A8F38EEFC8
:104590009FEF2AC09091B900987F983041F0909198
:1045A000B900987F903119F08FEF9FEF1DC0C09335
:1045B000BB0084E88093BC000E940919EC01909133
:1045C000BC0097FD08C00E9409198C1B9D0B843606
:1045D0009105A8F3DCCF8091B900887F883111F074
:1045E000803411F780E090E0DF91CF911F910F911F
:1045F00008959F92AF92BF92CF92DF92EF92FF9277
:104600000F931F93CF93DF9300D000D0CDB7DEB7C9
:104610006C0110911601110F812F880F880F180F50
:104620003AE0310F313308F030E38091020689839C
:10463000809103068A83809104068B83609105062E
:10464000669566958091F9059091FA053C830E94E4
:10465000BB21F82E80E48F0D0E94402190E8E92EC6
:10466000E80E8F2D0E94402120E8922E980E3C816A
:10467000131700F5A12EB12CF501E35CFC4F8081EE
:10468000909117019823A1F00F2D212F492D6E2D08
:10469000CE0101963C83F601099569817A818B816F
:1046A0000E94C621472F282FC5010E94DC203C8193
:1046B0001F5FDECF81E0303308F080E00F900F9075
:1046C0000F900F90DF91CF911F910F91FF90EF907E
:1046D000DF90CF90BF90AF909F9008957F928F9280
:1046E0009F92AF92BF92CF92DF92EF92FF920F9381
:1046F0001F93CF93DF9300D000D0CDB7DEB75C011E
:1047000010911601110F812F880F880F180F3AE0B2
:10471000310F313308F030E38091020689838091B4
:1047200003068A83809104068B8360910506669553
:104730008091F9059091FA053C830E94BB21782E67
:104740003C81131708F044C0812E912CF401E35CE6
:10475000FC4F9081809117018923C1F1F401EE0F84
:10476000FF1FE352FD4FE080F12C80E7E81AF108CB
:10477000F401EE0FFF1FE252FD4FC080D12CE0E2AA
:10478000CE1AD108EE9CA001EF9C500D500D1124C3
:10479000CC9CC001CD9C900D900D1124840F951FD1
:1047A0003C830E946121072D282FA601B701CE016D
:1047B0000196F501099569817A818B810E94C62154
:1047C000472F282FC4010E94DC203C811F5FB9CFF6
:1047D00081E0303308F080E00F900F900F900F9041
:1047E000DF91CF911F910F91FF90EF90DF90CF90CD
:1047F000BF90AF909F908F907F900895BF92CF927F
:10480000DF92EF92FF920F931F93CF93DF9300D02D
:104810001F92CDB7DEB76C0110911601110F812FD9
:10482000880F880F180F0AE0010F013308F000E32A
:10483000809102068983809103068A838091040611
:104840008B836091050666958091F9059091FA0534
:104850000E94BB21B82E101768F5E12EF12CF7014C
:10486000E35CFC4F908180911701892309F1F701E6
:10487000EE0FFF1FE252FD4F408150E040525109C0
:10488000F701EE0FFF1FE352FD4F608170E06057AC
:1048900071092B2DCE010196F601099569817A8166
:1048A0008B810E94C621472F282FC7010E94DC2040
:1048B0001F5FD1CF81E0003308F080E00F900F90B0
:1048C0000F90DF91CF911F910F91FF90EF90DF90AC
:1048D000CF90BF900895BF92CF92DF92EF92FF9258
:1048E0000F931F93CF93DF9300D01F92CDB7DEB706
:1048F0007C0110911601110F812F880F880F180F5E
:104900000AE0010F013308F000E380910206898379
:10491000809103068A83809104068B83609105064B
:10492000669566958091F9059091FA050E94BB21E4
:10493000B82E1017E0F4C12ED12CF601E35CFC4F29
:10494000808190911701982381F04B2D612FCE012A
:104950000196F701099569817A818B810E94C621B0
:10496000472F282FC6010E94DC201F5FE2CF81E085
:10497000003308F080E00F900F900F90DF91CF91FF
:104980001F910F91FF90EF90DF90CF90BF9008950F
:10499000CF93DF93EC0180EEFE01099581EEFE01DD
:1049A000DF91CF9109940F931F93CF93DF938B01E6
:1049B0000E94AF22C5EED5E00B511A4FC017D107A8
:1049C00041F424E92093BC00DF91CF911F910F9116
:1049D000089597FDF6CF89910E948822EFCFCF925C
:1049E000DF92FF920F931F93CF93DF931F92CDB768
:1049F000DEB7F82E8B0199830E94FC1199818111F9
:104A00001CC0CF2CD92E01151105B1F08091E80002
:104A100085FD0AC08091E8008E778093E8000E94AF
:104A2000FC11882381F309C0F60181916F01809305
:104A3000F10001501109E7CF80E00F90DF91CF9195
:104A40001F910F91FF90DF90CF9008951F93CF9308
:104A5000DF93CDB7DEB7AA970FB6F894DEBF0FBECF
:104A6000CDBFEDEDF5E088E08E0F9091F1009193D0
:104A70008E13FBCF8091DE05833009F460C030F4E3
:104A8000813071F0823009F49CC0B3C08A3009F4DF
:104A900088C08B3009F46BC0893009F0AAC020C0EF
:104AA0008091DD05813A09F0A4C08091E800877FFC
:104AB0008093E8008091E1059091E205892B21F433
:104AC00060E289EB95E003C060E080E090E070E098
:104AD0000E94BE138091E8008B778093E80089C024
:104AE0008091DD05813209F084C08091E1059091CB
:104AF000E205029708F07DC08091E800877F8093EF
:104B0000E8008091E80082FD05C08091DB058111FD
:104B1000F8CF6FC02091F3008091F20090E0922BCB
:104B2000029729F48091F1008B7F813021F48091EC
:104B3000F1008093B8058091E8008B7756C0809192
:104B4000DD05813A09F055C08091E1059091E205BB
:104B5000892B09F04EC08091E800877F8093E800A0
:104B60008091E80080FFFCCF8091150139C08091D1
:104B7000DD058132F1F58091E1059091E205892B07
:104B8000C1F58091E800877F8093E8000E942E1293
:104B90008091DF05809315011092B6050E94622A6C
:104BA00028C08091DD05813221F58091E800877F62
:104BB0008093E8000E942E128091E0058093B70553
:104BC00018C08091DD05813AA1F48091E800877FCB
:104BD0008093E8008091E80080FFFCCF8091B705CA
:104BE0008093F1008091E8008E778093E8000E9426
:104BF0002E128091E80083FFD6C18091DD0590914F
:104C0000DE05492F50E04A30510508F0CCC1FA01C9
:104C1000E455FF4F0C948E2C803821F0823809F037
:104C2000C2C108C08091D9059091DA05992389F015
:104C300082600FC08091E1058F70873008F0B3C1AA
:104C40008093E9008091EB0085FB882780F9109222
:104C5000E9009091E800977F9093E8008093F1003D
:104C60001092F10074C1282F2D7F09F09CC1882378
:104C700019F0823061F097C18091DF05813009F031
:104C800092C1933009F080E08093DA052EC08091C4
:104C9000DF0581112AC08091E1058F702FEF280F69
:104CA000263008F080C18093E9002091EB0020FFBE
:104CB0001CC0933021F48091EB00806214C090916D
:104CC000EB0090619093EB0021E030E0A90102C07D
:104CD000440F551F8A95E2F74093EA001092EA00CC
:104CE0008091EB0088608093EB001092E900809146
:104CF000E800877F2FC1811156C11091DF051F7712
:104D00008091E3008078812B8093E3008091E8001C
:104D1000877F8093E8000E942E128091E80080FF38
:104D2000FCCF8091E30080688093E300111102C002
:104D300082E001C083E08093DB0535C1805882307A
:104D400008F031C18091DF059091E0058C3D53E082
:104D5000950779F583E08A838AE289834FB7F894CF
:104D6000DE01139620E03EE051E2E32FF0E05093A5
:104D70005700E49120FF03C0E295EF703F5FEF70B2
:104D80008E2F90E0EA3010F0C79601C0C0968D9348
:104D90009D932F5F243149F74FBF8091E800877FB3
:104DA0008093E8006AE270E0CE0101960E94BE1393
:104DB000BDC04091E1055091E205292F33272330F2
:104DC0003105B9F06CF42130310509F4FBC0223013
:104DD000310509F0E8C08BE390E0E8E2F6E054C06A
:104DE0002132310509F433C02232310509F43CC0C7
:104DF000DAC0992781309105D1F05CF4892B09F054
:104E0000D2C0EBEAF6E0E4918E2F90E0EBEAF6E018
:104E100038C08230910599F0039709F0C4C0E5E7E6
:104E2000F6E0E4918E2F90E0E5E7F6E02AC0E3E9B2
:104E3000F6E0E4918E2F90E0E3E9F6E022C0EBE7A4
:104E4000F6E0E4918E2F90E0EBE7F6E01AC0411512
:104E5000510509F4BCC04130510509F0A4C089E0F6
:104E600090E0E3E5F6E010C04115510509F4B4C047
:104E70004130510509F097C080EC90E0E8E2F5E0A0
:104E800003C0009709F48FC02091E800277F20938A
:104E9000E8002091E3053091E4052817390708F46C
:104EA000C90140E0009789F12091DB05222309F434
:104EB0003DC02530D9F12091E80023FD37C0209175
:104EC000E80022FD2FC02091E80020FFEBCF4091A9
:104ED000F3002091F20030E0342B009759F0283095
:104EE000310540F444914093F100319601972F5FD2
:104EF0003F4FF3CF41E02830310509F040E02091E9
:104F0000E8002E772093E800CDCF4111CDCF0AC025
:104F10008091DB05882351F0853041F08091E800D5
:104F200083FD04C08091E80082FFF2CF8091E80009
:104F30008B778093E80037C08038A9F58091E8002E
:104F4000877F8093E8008091DC058093F100809159
:104F5000E8008E778093E8000E942E1224C0811111
:104F600022C01091DF051230F0F48091E800877FB5
:104F70008093E8001093DC050E942E12111106C0E8
:104F80008091E30087FD02C081E001C084E080934E
:104F9000DB0542E061EC81E00E944D1242E261ECEF
:104FA00082E00E944D128091E80083FF1AC0809138
:104FB000E800877F8093E8008091EB008062809317
:104FC000EB000FC082E190E0E3E6F6E05DCF89E020
:104FD00090E0EAE3F6E058CF80E490E0E8EEF5E018
:104FE00053CFAA960FB6F894DEBF0FBECDBFDF91A8
:104FF000CF911F9108958091E10382958F7009F000
:1050000054C08091DE03882309F44FC080911304BB
:10501000A091E2036091DC037091DD034091DF0316
:105020005091E003B6E08A1709F43FC090E04115C3
:105030005105C1F17F3F11F46F3FA1F1B89FF0011D
:10504000B99FF00D1124ED51FC4F218172132AC03C
:105050002081621327C02281211124C02381348141
:105060002417350710F421503109241B350B283C37
:105070003105C0F42091E1032F7020612093E103FA
:1050800026E0289FF001299FF00D1124E851FC4FE4
:1050900080818F70806180838CED93E00E94770324
:1050A0000C94E91B01968770BECF08950E94A11A47
:1050B000292F2F7092959F70E92FF0E03297EE30F4
:1050C000F105B8F4EA54FF4F0C948E2C803F99F010
:1050D00018F4803E70F40FC0843F59F40CC0803E39
:1050E00050F0813F31F407C0822F869586958695D2
:1050F000089580E0089581E00895BF92CF92DF92F5
:10510000EF92FF920F931F93CF93DF93CDB7DEB74C
:1051100061970FB6F894DEBF0FBECDBF8C0185E05E
:10512000F801DE011D9601900D928A95E1F7D801F4
:105130003C9111962C9111971296EC901297139620
:10514000CD90DC9014975091DC036091DD03809149
:10515000DF039091E003009709F44FC16F3F19F40A
:105160005F3F09F44AC1B090DE03BB2009F4ECC0F4
:105170004091E103C816D90628F0F601E81BF90BA7
:10518000CF0104C0809590958C0D9D1DFF24F39454
:10519000883C910548F0F12C407F09F09FC08CEDD0
:1051A00093E00E94770321C1842F807F09F044C0DF
:1051B000621312C0531310C0E1100EC04F70406153
:1051C0004093E1038CED93E00E9477038091E1032B
:1051D000D80115968C932EC0CD2819F12F3F11F4CC
:1051E0003F3FF9F0FE2CE1101CC080911304409168
:1051F000E20356E0841709F458C090E0589FF0018C
:10520000599FF00D1124ED51FC4F6181261306C00A
:105210006081361303C06281611103C001968770FB
:10522000E9CFFE2CEE2009F421C18091E1038160D9
:105230008093E103F12C1AC162130AC0531308C012
:10524000E11006C08091E103D80115968C93B0C09F
:105250003D872E878D859E850E9456288823D1F113
:10526000EE20C1F12091E103822F82958F7090E0B2
:10527000029774F08091DC039091DD0398878F830F
:105280001986DB86CA862C87CE0107960E94770393
:1052900086E0F801ACEDB3E001900D928A95E1F75C
:1052A0000E94FB27FF24F394E1C03D872E878D8564
:1052B0009E850E94A11A292F22952F7030E022305E
:1052C00031050CF0C7C09F7009F0C1C0805E883006
:1052D00008F4CCC0C8010E947703E4CF621314C065
:1052E000531312C0E11010C08091E103F8018583CF
:1052F000C8010E94770386E0ECEDF3E0DF011D9228
:105300008A95E9F7FB2CB2C03D872E878D859E8557
:105310000E9456288823F1F2EE20E1F22091E10369
:10532000822F82958F7090E002970CF4B1CF80911C
:10533000DC039091DD039A8389831B82DD82CC821A
:105340002E83CE010196A2CFC816D90638F0C81A0E
:10535000D90AB8ECCB16D10450F007C080959095CF
:105360008C0D9D1D883C910510F0F12C3EC0FE2C4B
:10537000EE2009F4AFCF621327C0531325C020914C
:10538000E10320FD18C0822F82958F70482F50E0D6
:105390004115510581F0F80125834F30510541F049
:1053A0008F5F982F9295907F822F8F70892B8583A6
:1053B000C8010E94770386E0F801ACEDB3E00190EC
:1053C0000D928A95E1F752C03D872E878D859E8587
:1053D0000E94562881115CCF8091E1038160809307
:1053E000E103C8010E94770341C0ECEDF3E086E0E1
:1053F000DF011D928A95E9F739C0EE2009F46ACFE2
:105400003D872E878D859E850E945628F82E8823FD
:1054100009F460CF86E0F801ACEDB3E001900D92A5
:105420008A95E1F78091DC039091DD030E94A11A37
:1054300092959F70963041F48091070691E08927FC
:1054400080930706909306060E94FB270FC08111E8
:105450003DCF0CC0243031050CF03CCF9F7009F4D7
:1054600035CFF8019581907F09F030CF8F2D61966F
:105470000FB6F894DEBF0FBECDBFDF91CF911F9165
:105480000F91FF90EF90DF90CF90BF900895109212
:105490005104109250040E941A1AE1EAF3E086E0E7
:1054A000DF011D928A95E9F71092A70310925B0421
:1054B0000E94151980E090E00E944D2080E090E06D
:1054C0000C94372080911501882331F080918E0350
:1054D00087FF02C08EE101C086E0EEEBF3E0DF0162
:1054E0001D928A95E9F70C94472A882341F080950C
:1054F0009091B60589238093B6050C941A1A0895E5
:10550000882339F09091B605892B8093B6050C94C9
:105510001A1A0895882309F463C0823869F40E9436
:10552000632081FF5DC069E38CEB93E00E947F19EB
:105530000E941A1A69E30EC0833891F40E94632016
:1055400080FF4EC063E58CEB93E00E947F190E94C0
:105550001A1A63E58CEB93E00E9454190C941A1A02
:10556000843869F40E94632082FF3AC067E48CEBC0
:1055700093E00E947F190E941A1A67E4EBCF9CEF18
:10558000980F913A10F4682FE5CF90E2980F983079
:1055900088F4877021E030E0A90102C0440F551F54
:1055A0008A95E2F7CA0180959091B6058923809388
:1055B000B605D4CF9BE5980F933020F480E090E0BF
:1055C0000C944D2098E5980F973120F480E090E0FE
:1055D0000C943720803F20F00E945B170C94151923
:1055E0000895CF93C82F0E94042BC93349F42FEF9D
:1055F00083EC99E0215080409040E1F700C000002A
:105600008C2FCF910C948A2A882309F416C18238F2
:10561000B1F40E94632081FD10C169E38CEB93E03B
:105620000E947F190E941A1A2FEF41EE54E0215078
:1056300040405040E1F700C0000069E317C08338E4
:10564000D9F40E94632080FDF8C063E58CEB93E001
:105650000E947F190E941A1A8FEF91EE24E0815068
:1056600090402040E1F700C0000063E58CEB93E040
:105670000E9454190C941A1A8438B1F40E946320C1
:1056800082FDDBC067E48CEB93E00E947F190E94EF
:105690001A1A4FEF51EE84E0415050408040E1F73C
:1056A00000C0000067E4E2CF9CEF980F913A30F41D
:1056B000682F8CEB93E00E947F19DCCF90E2980F6B
:1056C000983080F4877021E030E0A90102C0440FD7
:1056D000551F8A95E2F7CA019091B605892B8093F0
:1056E000B605C8CF9BE5980F933070F4853A29F042
:1056F000863A31F083E890E005C081E890E002C08E
:1057000082E890E00C944D2098E5980F973108F0CE
:105710008EC0883A09F445C0893A09F445C08A3AEE
:1057200009F445C08B3A09F445C08C3A09F445C0E8
:105730008B3B09F445C08C3B09F445C08D3A09F414
:1057400045C0803B09F445C08E3A09F445C08F3A04
:1057500009F445C0813B09F445C0823B09F445C0CA
:10576000833B09F445C0843B09F445C0853B09F4FB
:1057700045C0863B09F445C0873B09F445C0883BDA
:1057800009F445C0893B09F445C08D3B09F445C087
:105790008E3B09F445C08A3B09F445C080E090E0A7
:1057A00044C082EE90E041C089EE90E03EC08AEEB7
:1057B00090E03BC085EB90E038C086EB90E035C0D0
:1057C00083EB90E032C084EB90E02FC087EB90E059
:1057D0002CC08CEC90E029C08DEC90E026C083E8D2
:1057E00091E023C08AE891E020C082E991E01DC0E9
:1057F00084E991E01AC081E292E017C083E292E06E
:1058000014C084E292E011C085E292E00EC086E20C
:1058100092E00BC087E292E008C08FE690E005C0FE
:1058200080E790E002C08AE292E00C943720803F4B
:1058300020F00E9425180C9415190895F999FECFAF
:1058400092BD81BDF89A992780B50895A6E1B0E090
:1058500044E050E00C94582CA8E1B0E042E050E065
:105860000C94582C262FF999FECF92BD81BDF89A41
:10587000019700B4021639F01FBA20BD0FB6F89494
:10588000FA9AF99A0FBE08950396272F0E94332C97
:105890000E94322C252F0E94332C242F0C94332C61
:1058A0000196272F0E94332C0C94322CDC01CB0163
:1058B000FC01F999FECF06C0F2BDE1BDF89A319620
:1058C00000B40D9241505040B8F70895AA1BBB1B7D
:1058D00051E107C0AA1FBB1FA617B70710F0A61BF0
:1058E000B70B881F991F5A95A9F780959095BC0111
:1058F000CD01089597FB072E16F4009407D077FD8D
:1059000009D00E94662C07FC05D03EF49095819545
:105910009F4F0895709561957F4F0895EE0FFF1F7B
:105920000590F491E02D0994CF93DF938230910597
:1059300010F482E090E0E0910A06F0910B0620E07E
:1059400030E0C0E0D0E0309711F14081518148173C
:105950005907C0F04817590761F482819381209755
:1059600019F09B838A832BC090930B0680930A06C1
:1059700026C02115310519F04217530718F49A0172
:10598000BE01DF01EF010280F381E02DDCCF2115A4
:10599000310509F1281B390B2430310590F412969A
:1059A0008D919C9113976115710521F0FB019383F3
:1059B000828304C090930B0680930A06FD01329601
:1059C00044C0FD01E20FF31F8193919322503109EE
:1059D0002D933C933AC02091080630910906232B61
:1059E00041F4209102013091030130930906209384
:1059F000080620910001309101012115310541F483
:105A00002DB73EB74091040150910501241B350B81
:105A1000E0910806F0910906E217F307A0F42E1BA7
:105A20003F0B2817390778F0AC014E5F5F4F241702
:105A3000350748F04E0F5F1F509309064093080644
:105A40008193919302C0E0E0F0E0CF01DF91CF912C
:105A500008950F931F93CF93DF93009709F48CC0A1
:105A6000FC0132971382128200910A0610910B06F4
:105A70000115110581F420813181820F931F20913E
:105A80000806309109062817390779F5F0930906B9
:105A9000E093080671C0D80140E050E0AE17BF07A0
:105AA00050F412962D913C911397AD0121153105BB
:105AB00009F1D901F3CF9D01DA013383228360819B
:105AC0007181860F971F8217930769F4EC01288173
:105AD0003981260F371F2E5F3F4F318320838A8104
